:100000000C9458000C9480000C9480000C94800098
:100010000C9480000C9480000C9480000C94800060
:100020000C9480000C9480000C9480000C94800050
:100030000C9480000C9480000C9480000C94800040
:100040000C9470070C9480000C94E0070C94BA0791
:100050000C9480000C9480000C9480000C94800020
:100060000C9412080C948000000000002500280069
:100070002B00040404040404040402020202020229
:10008000030303030303010204081020408001025C
:1000900004081020010204081020000000080002DB
:1000A0000100000304070000000000000000310907
:1000B00011241FBECFEFD8E0DEBFCDBF11E0A0E01E
:1000C000B1E0E4EAF4E202C005900D92A43EB1076B
:1000D000D9F723E0A4EEB1E001C01D92A838B20721
:1000E000E1F710E0C8E5D0E004C02197FE010E94CE
:1000F0005810C735D107C9F70E949A090C945012BD
:100100000C94000090E0FC01E656FF4F2491FC01A6
:10011000EA57FF4F3491FC01EE58FF4FE491EE2374
:10012000C9F0222339F0233001F1A8F4213019F16C
:10013000223029F1F0E0EE0FFF1FE859FF4FA591A3
:10014000B4918FB7F894EC91611126C030953E239D
:100150003C938FBF08952730A9F02830C9F0243090
:1001600049F7809180008F7D03C0809180008F7758
:1001700080938000DFCF84B58F7784BDDBCF84B5DB
:100180008F7DFBCF8091B0008F778093B000D2CF6E
:100190008091B0008F7DF9CF3E2BDACF3FB7F89436
:1001A0008091A7029091A802A091A902B091AA0201
:1001B00026B5A89B05C02F3F19F00196A11DB11DC2
:1001C0003FBFBA2FA92F982F8827BC01CD01620FFE
:1001D000711D811D911D42E0660F771F881F991FB9
:1001E0004A95D1F708958F929F92AF92BF92CF9286
:1001F000DF92EF92FF924B015C010E94CE006B01F7
:100200007C010E94CE006C197D098E099F09683E11
:10021000734081059105A8F321E0821A9108A10895
:10022000B10888EEC80E83E0D81EE11CF11C8114D1
:100230009104A104B10429F7FF90EF90DF90CF90D3
:10024000BF90AF909F908F900895AF92BF92CF9242
:10025000DF92EF92FF920F931F93CF93DF936C0186
:100260007B018B01040F151FEB015E01AE18BF0867
:10027000C017D10759F06991D601ED91FC91019019
:10028000F081E02DC6010995892B79F7C501DF9131
:10029000CF911F910F91FF90EF90DF90CF90BF9083
:1002A000AF900895FB0144815581608171810C9468
:1002B0002501FC01538D448D252F30E0842F90E0E3
:1002C000821B930B541710F0CF9608950197089551
:1002D000FC01918D828D981761F0A28DAE0FBF2F1A
:1002E000B11D5D968C91928D9F5F9F73928F90E070
:1002F00008958FEF9FEF0895FC01918D828D9817DF
:1003000031F0828DE80FF11D858D90E008958FEF1B
:100310009FEF0895FC01918D228D892F90E0805CE4
:100320009F4F821B91098F73992708958BEA92E062
:100330000E948A0121E0892B09F420E0822F089590
:1003400080E090E0892B29F00E94960181110C94A5
:1003500000000895FC01A48DA80FB92FB11DA35A68
:10036000BF4F2C91848D90E001968F739927848FD5
:10037000A689B7892C93A089B1898C9183708064F8
:100380008C93938D848D981306C00288F389E02D99
:1003900080818F7D80830895EF92FF920F931F934A
:1003A000CF93DF93EC0181E0888F9B8D8C8D981328
:1003B0001AC0E889F989808185FF15C09FB7F89434
:1003C000EE89FF896083E889F98980818370806480
:1003D00080839FBF81E090E0DF91CF911F910F91CB
:1003E000FF90EF900895F62E0B8D10E00F5F1F4FDA
:1003F0000F731127E02E8C8D8E110CC00FB607FCE9
:10040000FACFE889F989808185FFF5CFCE010E9476
:10041000AA01F1CFEB8DEC0FFD2FF11DE35AFF4F39
:10042000F0829FB7F8940B8FEA89FB898081806204
:10043000CFCFCF93DF93EC01888D8823B9F0AA89C1
:10044000BB89E889F9898C9185FD03C0808186FD8F
:100450000DC00FB607FCF7CF8C9185FFF2CF8081DE
:1004600085FFEDCFCE010E94AA01E9CFDF91CF91A8
:10047000089508950895089520912502260F3327A1
:10048000331F21323105ECF420917402FC0190E01D
:1004900080E0243069F082E00895A0912502219146
:1004A000AC014B5F5D4FA40FB52FB11D2C9301968E
:1004B000861798F380912502680F6093250280E0EB
:1004C000089581E008951092740281E08093730290
:1004D00010924E0261E082E10E94820061E083E1BD
:1004E0000E948200E9EBF0E080818E7F8083808132
:1004F0008D7F808388E48093B80085E48093BC007E
:100500000895CF93DF9391E0909304028823B9F08C
:10051000C091B800D091BA008091BC008A7B8093D2
:10052000BC0060E082E10E94820060E083E10E9402
:1005300082000E946302D093BA00C093B800DF919A
:10054000CF9108950895E0914D0280914C02E817F3
:1005500030F4F0E0EC51FE4F808190E008958FEF91
:100560009FEF089590914D0280914C022FEF3FEF45
:10057000981748F4E92FF0E0EC51FE4F208130E06D
:100580009F5F90934D02C901089580914C02909114
:100590004D02891B990B0895CF92DF92EF92FF9243
:1005A0000F931F93CF93DF937C01CB018A0120919E
:1005B0007A02222389F0EB016B01C40ED51ECC1503
:1005C000DD0569F06991D701ED91FC910190F08111
:1005D000E02DC7010995F3CF642F0E943C02C801AA
:1005E000DF91CF911F910F91FF90EF90DF90CF900F
:1005F0000895CF93DF931F92CDB7DEB76983209123
:100600007A022223F9F020919D02203258F021E055
:1006100030E0FC013383228390E080E00F90DF9193
:10062000CF91089580917B02E82FF0E0E458FD4FD0
:10063000998190838F5F80937B0280939D0281E0FC
:1006400090E0ECCF61E0CE0101960E943C02F7CF32
:10065000CF92DF92EF92FF920F931F93CF93DF938E
:10066000FC01C48121E020937A02C0939C02109285
:100670007B0210929D028385682B88E493E00E94A0
:10068000F902D0919D02D13208F092C00E94CE00B2
:100690006B017C0180917402811165C082E08093BE
:1006A000740281E0809373028FEF80937202109244
:1006B0007102D0937002ACE7B2E0E0E5F2E080E0D6
:1006C000D81385C010924F0280914F02CC0FC82BD7
:1006D000C0934F0280914E02813009F07CC010928D
:1006E0004E020E94CE006B017C0180914F028093EC
:1006F000BB008091760290917702A0917802B09130
:100700007902892B8A2B8B2B99F00E94CE000091C5
:1007100076021091770220917802309179026C195B
:100720007D098E099F090617170728073907E0F189
:100730008091BC0083FDD9CF85EC8093BC000E94E2
:10074000CE006B017C0180917402823009F445C0B7
:10075000809172028F3F61F180917202803241F18B
:100760008091720225C08091760290917702A091CB
:100770007802B0917902892B8A2B8B2B09F48ACFCE
:100780000E94CE00009176021091770220917802AB
:10079000309179026C197D098E099F090617170798
:1007A0002807390708F076CF809175020E948102F0
:1007B00010927B0210929D0210927A02DF91CF91EB
:1007C0001F910F91FF90EF90DF90CF9008959D9132
:1007D00091938F5F75CF85EEB0CF80917602909127
:1007E0007702A0917802B0917902892B8A2B8B2B0A
:1007F00009F4A9CF0E94CE000091760210917702F1
:1008000020917802309179026C197D098E099F0937
:10081000061717072807390708F095CFC5CF28E036
:10082000FC01238760E00C94280390E080E00895A9
:100830000F931F93CF938C01C62F0E9428036C2F18
:100840006460C8010E9428036C2F6B7FC8010E945E
:10085000280383EC90E00197F1F7CF911F910F915E
:1008600008950F931F93CF93DF938C01D62FC42F3E
:10087000607F642B0E94180480E1D89FB00111248E
:100880006C2BC801DF91CF911F910F910C9418042C
:10089000CF93DF93CDB7DEB728970FB6F894DEBFBE
:1008A0000FBECDBF28E0EAE0F1E0DE011196019035
:1008B0000D922A95E1F7FC012085261708F46FEFC9
:1008C00070E0660F771F21E030E02C0F3D1F620FB4
:1008D000731FFB016081606840E028960FB6F894B2
:1008E000DEBF0FBECDBFDF91CF910C94310441E04C
:1008F0000E94310481E090E0089540E061E00E94B0
:1009000031048BE39FE10197F1F708950F931F9353
:10091000CF93DF93EC0110924D0210924C02109293
:100920007B0210929D020E94630289E392E0909301
:100930004B0280934A028AE392E0909349028093AB
:1009400048021D828A85823010F098E09D83888756
:1009500062E370E080E090E00E94F3006B85CE01DE
:100960000E94280368EE73E080E090E00E94F300AC
:1009700060E3CE010E9418040BE416E4C80101975D
:10098000F1F760E3CE010E941804C8010197F1F766
:1009900060E3CE010E94180483E592E00197F1F72D
:1009A00060E2CE010E9418046D81606240E0CE01D9
:1009B0000E94310484E08E8340E06CE0CE010E940E
:1009C0003104CE010E947D0482E08F8340E066E026
:1009D000CE010E94310440E062E0CE010E94310469
:1009E0008BE39FE10197F1F7DF91CF911F910F9179
:1009F0000895FB0101900020E9F73197AF01461BF4
:100A0000570BDC01ED91FC910280F381E02D0994FC
:100A10008F929F92AF92BF92EF92FF920F931F938C
:100A2000CF93DF93CDB7DEB7A1970FB6F894DEBFB3
:100A30000FBECDBF7C01FA01CB0119A2223008F410
:100A40002AE08E010F5D1F4F822E912CB12CA12C1C
:100A5000BF01A50194010E94590FF901CA016A3032
:100A60000CF5605DD8016E938D01232B242B252B73
:100A700079F790E080E0109721F0BD01C7010E9456
:100A8000F904A1960FB6F894DEBF0FBECDBFDF917B
:100A9000CF911F910F91FF90EF90BF90AF909F90DB
:100AA0008F900895695CDECFCF92DF92EF92FF9234
:100AB000CF93DF936B01770FEE08FF08F7FE18C0A6
:100AC000EC0141E06DE20E94310444275527BA0150
:100AD0004C195D096E097F092AE0CE010E940805C4
:100AE0000196DF91CF91FF90EF90DF90CF90089526
:100AF0002AE0B701A601DF91CF91FF90EF90DF9040
:100B0000CF900C9408050C94F9040F931F93CF9386
:100B1000DF93EC0188819981009759F02A813B810C
:100B20002617370730F081E0DF91CF911F910F91A9
:100B300008958B016F5F7F4F0E948311009759F0DA
:100B4000998388831B830A832C813D81232B59F74A
:100B5000FC011082E8CF80E0E7CFCF93DF93EC0178
:100B600088819981009711F00E94FA1019821882E9
:100B70001D821C821B821A82DF91CF910895CF9231
:100B8000DF92EF92FF920F931F93CF93DF93CDB736
:100B9000DEB728970FB6F894DEBF0FBECDBF7C013D
:100BA000CB014AE09E012F5F3F4F6901B9010E94CE
:100BB000970DF60101900020E9F73197EC19FD0936
:100BC000D9F0D70114960D911C910E0F1F1FB8017B
:100BD000C7010E9485058823F9F0F7012081318142
:100BE00084819581B601820F931F0E944912D7011B
:100BF00015961C930E931497C70128960FB6F89478
:100C0000DEBF0FBECDBFDF91CF911F910F91FF903F
:100C1000EF90DF90CF900895C7010E94AD05ECCF13
:100C2000EF92FF920F931F93CF93DF938C017B0181
:100C3000FB0101900020E9F73197E61BF70BD1F09B
:100C4000DC011496CD91DC91CE0FDF1FBE010E9416
:100C500085058823B9F0F80120813181848195814F
:100C6000B701820F931F0E944912D8011596DC9399
:100C7000CE931497C801DF91CF911F910F91FF90F0
:100C8000EF900895C8010E94AD05F4CFEF92FF9256
:100C90000F931F93CF93DF93EC018617970781F093
:100CA000FB01008111810115110539F0E480F58007
:100CB000B7010E94850581110BC0CE010E94AD05D0
:100CC000CE01DF91CF911F910F91FF90EF9008958A
:100CD000FD82EC82B801888199810E944912F0CF8F
:100CE000FC011182108213821282158214820C94EC
:100CF0004606FC0180819181009711F00C94FA1056
:100D00000895AF92BF92CF92DF92EF92FF920F932E
:100D10001F93CF93DF93CDB7DEB72C970FB6F89420
:100D2000DEBF0FBECDBF8C012F83388749875A871E
:100D30006B877C87EF80F884C984DA84FC01118298
:100D40001082138212821582148270E060E00E9489
:100D50008505811183C0C8010E94AD05AB84BC84A8
:100D6000B801CE0101960E947006B501CE01019630
:100D70000E94BF0560E671E00E941006BC01C80138
:100D80000E944606CE0101960E947906FAE0CF162F
:100D9000D1049CF4B801CE0101960E94700662E66F
:100DA00071E0CE0101960E941006BC01C8010E94AC
:100DB0004606CE0101960E947906B801CE01019641
:100DC0000E947006B601CE0101960E94BF0560E642
:100DD00071E00E941006BC01C8010E944606CE01C7
:100DE00001960E9479068AE0E816F1049CF4B801A5
:100DF000CE0101960E94700662E671E0CE01019676
:100E00000E941006BC01C8010E944606CE01019650
:100E10000E947906B801CE0101960E947006B701C2
:100E2000CE0101960E94BF05BC01C8010E94460682
:100E3000CE0101960E947906C8012C960FB6F8944F
:100E4000DEBF0FBECDBFDF91CF911F910F91FF90FD
:100E5000EF90DF90CF90BF90AF900895F80115828A
:100E600014826CE671E0808191810E94491276CFF4
:100E700085ED8093BC008091760290917702A091DD
:100E80007802B09179020796A11DB11D23E0B695B5
:100E9000A795979587952A95D1F72091BC0024FDB9
:100EA00003C0109274020895409176025091770227
:100EB0006091780270917902452B462B472B69F39C
:100EC0000097A105B10541F02AE22A95F1F700C08B
:100ED0000197A109B109E1CF809175020C948102BB
:100EE0001F920F920FB60F9211242F933F938F935F
:100EF0009F93AF93BF938091A3029091A402A0917E
:100F0000A502B091A6023091A20223E0230F2D3753
:100F100058F50196A11DB11D2093A2028093A30252
:100F20009093A402A093A502B093A6028091A70279
:100F30009091A802A091A902B091AA020196A11DC8
:100F4000B11D8093A7029093A802A093A902B09329
:100F5000AA02BF91AF919F918F913F912F910F90D6
:100F60000FBE0F901F90189526E8230F0296A11D23
:100F7000B11DD2CF1F920F920FB60F9211242F9353
:100F80003F934F935F936F937F938F939F93AF9311
:100F9000BF93EF93FF938BEA92E00E94AA01FF9127
:100FA000EF91BF91AF919F918F917F916F915F91E1
:100FB0004F913F912F910F900FBE0F901F9018955A
:100FC0001F920F920FB60F9211242F938F939F931E
:100FD000EF93FF93E091BB02F091BC028081E0911E
:100FE000C102F091C20282FD1BC090818091C402B7
:100FF0008F5F8F732091C502821741F0E091C40288
:10100000F0E0E555FD4F958F8093C402FF91EF917D
:101010009F918F912F910F900FBE0F901F90189559
:101020008081F4CF1F920F920FB60F9211242F934D
:101030003F934F935F936F937F938F939F93AF9360
:10104000BF93EF93FF938091B900887F803609F4B6
:101050004AC0F0F5883209F4A7C018F5803109F4C8
:101060009BC0B8F4882309F4F9C0883009F494C00F
:10107000FF91EF91BF91AF919F918F917F916F9170
:101080005F914F913F912F910F900FBE0F901F9046
:101090001895883109F488C0803251F78093720224
:1010A00014C0803409F49DC040F48033B9F3883310
:1010B000F9F68093720285ECB0C0803509F485C0E2
:1010C000883509F496C0883499F60E943807D0CF45
:1010D000883909F48CC038F5883729F050F48836FF
:1010E00011F0803729F683E0809374021092470252
:1010F00057C0883809F47BC0803919F0803809F06E
:10110000B7CF80914702803208F071C0E09147026A
:1011100081E08E0F809347028091BB00F0E0E95D93
:10112000FD4F80833DC0803B39F0E0F4803A09F404
:1011300079C0883A09F09CCF84E0809374021092C1
:10114000260210922502E0914A02F0914B02099585
:101150008091250281110FC081E0809325021092B9
:10116000050209C0803C09F4A6CF883C09F4A3CF4E
:10117000883B09F07DCFE091260281E08E0F8093BD
:101180002602F0E0EB5FFD4F80818093BB009091E1
:1011900026028091250229C080914F028093BB00D6
:1011A00085EC8093BC0064CF9091710280917002B5
:1011B000981758F5E091710281E08E0F80937102CB
:1011C000F0E0E05BFD4F8081E9CFE091710281E0CA
:1011D0008E0F809371028091BB00F0E0E05BFD4FC9
:1011E000808390917102809170029817C8F285E80F
:1011F000D8CFE091710281E08E0F809371028091CF
:10120000BB00F0E0E05BFD4F8083809173028111B1
:101210005CCF81E080934E0284EA8093BC00109200
:10122000740226CF85EC8093BC00109274028091EA
:101230004702803230F4E0914702F0E0E95DFD4F73
:1012400010826091470270E0E0914802F0914902FB
:1012500087E292E00995109247020ACF109272023B
:1012600034CFEBEAF2E01382128288EE93E0A0E042
:10127000B0E084839583A683B78324E331E0318390
:10128000208325EC30E03587248724EC30E0378755
:10129000268720EC30E0318B208B21EC30E0338B43
:1012A000228B22EC30E0358B248B26EC30E0378B20
:1012B000268B118E128E138E148EE8E4F3E01382C7
:1012C000128284839583A683B78386E491E0918319
:1012D0008083E8E7F3E01382128228E531E031836E
:1012E000208380E2848390E1918782E08287138665
:1012F000ECE6F3E0138212823183208341E24483DF
:10130000918782871386E0E6F3E0138212823183AD
:10131000208342E24483918782871386E4E5F3E0E9
:10132000138212823183208323E224839187828770
:1013300013860895CF93DF93CDB7DEB768970FB6C6
:10134000F894DEBF0FBECDBF789484B5826084BDB3
:1013500084B5816084BD85B5826085BD85B58160B9
:1013600085BD80916E00816080936E001092810037
:1013700080918100826080938100809181008160F2
:1013800080938100809180008160809380008091B3
:10139000B10084608093B1008091B000816080933F
:1013A000B00080917A00846080937A0080917A0006
:1013B000826080937A0080917A00816080937A00C5
:1013C00080917A00806880937A001092C1002FB7D4
:1013D000F8948091A3029091A402A091A502B091EB
:1013E000A6022FBF9093A1028093A00288E793E00A
:1013F0000E94860488E793E00E940F0488E793E048
:101400000E947D048CE693E00E9486048CE693E0C3
:101410000E940F048CE693E00E947D0480E693E036
:101420000E94860480E693E00E940F0480E693E029
:101430000E947D0484E593E00E94860484E593E0A5
:101440000E940F0484E593E00E947D04E091BB02BA
:10145000F091BC0282E08083E091B702F091B80283
:101460001082E091B902F091BA028FEC8083109261
:10147000C302E091BF02F091C00286E08083E09158
:10148000BD02F091BE02808180618083E091BD0247
:10149000F091BE02808188608083E091BD02F0916E
:1014A000BE02808180688083E091BD02F091BE021F
:1014B00080818F7D808364E671E08BEA92E00E94F8
:1014C000F9046AE671E08BEA92E00E94F904409127
:1014D000A0025091A10270E060E02AE08BEA92E065
:1014E0000E9408056AE671E08BEA92E00E94F90426
:1014F0000CE310E040E1242E4EE0342E50EA852E1D
:101500005CE8952EA12CB12C2FB7F8948091A30202
:101510009091A402A091A502B091A6022FBF2091A4
:10152000A0023091A102821B930BA109B109883E50
:101530009340A105B10508F4C9C12FB7F894809173
:10154000A3029091A402A091A502B091A6022FBF80
:101550009093A1028093A0022FB7F8946091A30208
:101560007091A4028091A5029091A6022FBF28EE4F
:1015700033E040E050E00E94590F790160E088E7D5
:1015800093E00E9448046DE671E088E793E00E94D2
:101590008305C701B8010E943010282F8F839887D8
:1015A000C701B1010E943010362FE72FB8010E9409
:1015B0003010462F69877A87632F3B87EC87388501
:1015C000572F7E2FCE0101960E948106BE016F5FCC
:1015D0007F4F88E793E00E945201CE0101960E945E
:1015E000790680919E0290919F0265E070E00E94D2
:1015F0003010FC01EE0FFF1FEA5DFE4FE080F1802E
:1016000061E088E793E00E94480467E771E088E7BB
:1016100093E00E94830584E6E816F10484F460E90F
:1016200071E088E793E00E9483059AE0E916F104EF
:1016300034F460E971E088E793E00E948305B70124
:1016400088E793E00E94540564E871E088E793E03E
:101650000E94830520919E0230919F02C90164E09F
:1016600070E00E943010FC01EE0FFF1FEA5DFE4F9C
:10167000C080D180C901029664E070E00E94301001
:10168000FC01EE0FFF1FEA5DFE4FE080F18060E09D
:101690008CE693E00E94480466E871E08CE693E0F3
:1016A0000E9483052AE0C216D10434F460E971E097
:1016B0008CE693E00E9483058AE0E816F10434F496
:1016C00060E971E08CE693E00E948305B6018CE648
:1016D00093E00E94540562E971E08CE693E00E9479
:1016E0008305B7018CE693E00E94540580919E0229
:1016F00090919F0265E070E00E943010FC01EE0FB7
:10170000FF1FEE0FFF1FEE5EFE4FC080D180E28014
:10171000F38061E08CE693E00E94480464E971E0A4
:101720008CE693E00E94830520E030E040E151E444
:10173000C701B6010E94CC0D181634F060E971E0C3
:101740008CE693E00E948305A7019601C701B601CC
:101750000E942B106DE971E081111BC02601370139
:10176000E89477F82FEF3FEF4FE75FE7C301B2014F
:101770000E942B108111B7C02FEF3FEF4FE75FE7BB
:10178000C301B2010E94CC0D18160CF0ACC061EA86
:1017900071E08CE693E00E94F90469EA71E08CE65E
:1017A00093E00E9483050E943F0DA50194010E94D1
:1017B000F00E7B0160E080E693E00E9448046DEA51
:1017C00071E080E693E00E948305C701B8010E94A2
:1017D0003010282F8D879E87C701B1010E943010DD
:1017E000362FE72FB8010E943010462F6F87788B75
:1017F000632F398BEA8B3E85572F7E2FCE010196C2
:101800000E948106BE016F5F7F4F80E693E00E94D9
:101810005201CE0101960E9479060E943F0DA5015A
:1018200094010E94F00E7B0161E080E693E00E944B
:10183000480467EB71E080E693E00E948305C701EE
:10184000B8010E943010282F8B8B9C8BC701B101EF
:101850000E943010362FE72FB8010E943010462F1B
:101860006D8B7E8B632F3F8BE88F3C89572F7E2FAC
:10187000CE0101960E948106BE016F5F7F4F80E618
:1018800093E00E945201CE0101960E947906E090F9
:101890009E02F0909F0291E0E922FF2460E084E53F
:1018A00093E00E94480461EC71E0EF2811F062EDD2
:1018B00071E084E593E00E94830580919E029091FF
:1018C0009F02019690939F0280939E0280E090E099
:1018D000892B09F419CE0E949601882309F414CEAD
:1018E0000E94000011CE2FEF3FEF4FE75FE4C701EA
:1018F000B6010E94261018161CF465EA71E049CF63
:101900002FEF3FEF4FE75FECC701B6010E94CC0D10
:1019100087FDF3CF20E030E0A901C701B6010E94A6
:10192000CC0D87FF0AC041E06DE28CE693E00E9497
:101930003104F7FAF094F7F8F0942AE037ED43EA2F
:101940005BE3C701B6010E948B0F2B013C010E9493
:10195000F70F6B017C010E94D10D9B01AC01C3010B
:10196000B2010E948A0F2B013C012AE0B701A601B7
:101970008CE693E00E94080541E06EE28CE693E07D
:101980000E94310420E030E040E251E4C301B201A2
:101990000E94320E2B013C010E94F70F6B01F12CCB
:1019A000E12C2AE0B701A6018CE693E00E9408052D
:1019B000C701B6010E94D10D9B01AC01C301B20168
:1019C0000E948A0F20E030E040E251E40E94320E93
:1019D0000E94F70FAB0170E060E02AE08CE693E034
:1019E0000E940805DACE8F929F92AF92BF92CF925B
:1019F000DF92EF92FF92CF93DF93EC0168817981C0
:101A00008A819B81611571058105910521F464E24C
:101A100079ED8BE597E02DE133EF41E050E00E9456
:101A2000F00E49015A019B01AC01A7EAB1E40E9402
:101A30000F0F6B017C01ACEEB4EFA50194010E9485
:101A40001D0FC60ED71EE81EF91EF7FE06C081E068
:101A5000C81AD108E10880E8F80AC882D982EA8267
:101A6000FB82C701B6019F77DF91CF91FF90EF9086
:101A7000DF90CF90BF90AF909F908F9008958F92FE
:101A80009F92AF92BF92CF92DF92EF92FF926091BE
:101A90000001709101018091020190910301611593
:101AA00071058105910521F464E279ED8BE597E0FC
:101AB0002DE133EF41E050E00E94F00E49015A0160
:101AC0009B01AC01A7EAB1E40E940F0F6B017C01FE
:101AD000ACEEB4EFA50194010E941D0FC60ED71EF7
:101AE000E81EF91EF7FE06C081E0C81AD108E10819
:101AF00080E8F80AC0920001D0920101E092020150
:101B0000F0920301C701B6019F77FF90EF90DF903D
:101B1000CF90BF90AF909F908F90089560930001F9
:101B20007093010180930201909303010895BB27F4
:101B30004A3031F4992322F4BDE2909581959F4F6C
:101B40000C94A30DBB27FB015527AA27880F991FCB
:101B5000AA1FA41710F0A41B83955051B9F7A05DDC
:101B6000AA3308F0A95DA193009779F7B111B19359
:101B70001192CB010C94BC0DDC01FC01672F71911B
:101B80007723E1F7329704C07C916D937083629163
:101B9000AE17BF07C8F308950E940E0E08F481E047
:101BA0000895E89409C097FB3EF490958095709550
:101BB00061957F4F8F4F9F4F9923A9F0F92F96E999
:101BC000BB279395F695879577956795B795F1110E
:101BD000F8CFFAF4BB0F11F460FF1BC06F5F7F4FAB
:101BE0008F4F9F4F16C0882311F096E911C07723BD
:101BF00021F09EE8872F762F05C0662371F096E8C6
:101C0000862F70E060E02AF09A95660F771F881F94
:101C1000DAF7880F9695879597F90895990F000838
:101C2000550FAA0BE0E8FEEF16161706E807F907AE
:101C3000C0F012161306E407F50798F0621B730B49
:101C4000840B950B39F40A2661F0232B242B252BCA
:101C500021F408950A2609F4A140A6958FEF811D6D
:101C6000811D08950E94450E0C94B60E0E94A80E88
:101C700038F00E94AF0E20F0952311F00C949F0EC7
:101C80000C94A50E11240C94EA0E0E94C70E70F35A
:101C9000959FC1F3950F50E0551F629FF001729F11
:101CA000BB27F00DB11D639FAA27F00DB11DAA1F20
:101CB000649F6627B00DA11D661F829F2227B00D6D
:101CC000A11D621F739FB00DA11D621F839FA00DF8
:101CD000611D221F749F3327A00D611D231F849F48
:101CE000600D211D822F762F6A2F11249F5750409F
:101CF0009AF0F1F088234AF0EE0FFF1FBB1F661F1A
:101D0000771F881F91505040A9F79E3F510580F0E2
:101D10000C949F0E0C94EA0E5F3FE4F3983ED4F3CC
:101D2000869577956795B795F795E7959F5FC1F786
:101D3000FE2B880F911D9695879597F9089597F931
:101D40009F6780E870E060E008959FEF80EC089561
:101D500000240A941616170618060906089500248A
:101D60000A9412161306140605060895092E039404
:101D7000000C11F4882352F0BB0F40F4BF2B11F478
:101D800060FF04C06F5F7F4F8F4F9F4F089557FDD7
:101D90009058440F551F59F05F3F71F04795880FD9
:101DA00097FB991F61F09F3F79F087950895121670
:101DB00013061406551FF2CF4695F1DF08C016161C
:101DC00017061806991FF1CF8695710561050894CD
:101DD0000895E894BB2766277727CB0197F90895E4
:101DE000052E97FB1EF400940E94070F57FD07D0A5
:101DF0000E94590F07FC03D04EF40C94070F509526
:101E00004095309521953F4F4F4F5F4F08959095E6
:101E10008095709561957F4F8F4F9F4F08950E94D9
:101E20007B0FA59F900DB49F900DA49F800D911DD9
:101E300011240895B7FF0C940F0F0E940F0F821BFF
:101E4000930B08952F923F924F925F926F927F92E1
:101E50008F929F92AF92BF92CF92DF92EF92FF92BA
:101E60000F931F93CF93DF93CDB7DEB7CA1BDB0B66
:101E70000FB6F894DEBF0FBECDBF09942A8839880B
:101E800048885F846E847D848C849B84AA84B98412
:101E9000C884DF80EE80FD800C811B81AA81B9811E
:101EA000CE0FD11D0FB6F894DEBF0FBECDBFED0132
:101EB0000895A1E21A2EAA1BBB1BFD010DC0AA1F8B
:101EC000BB1FEE1FFF1FA217B307E407F50720F0A3
:101ED000A21BB30BE40BF50B661F771F881F991F1E
:101EE0001A9469F760957095809590959B01AC0167
:101EF000BD01CF010895A29FB001B39FC001A39F70
:101F0000700D811D1124911DB29F700D811D112432
:101F1000911D08955058BB27AA270E94A20F0C9428
:101F2000B60E0E94A80E38F00E94AF0E20F039F4D1
:101F30009F3F19F426F40C94A50E0EF4E095E7FBF0
:101F40000C949F0EE92F0E94C70E58F3BA17620730
:101F500073078407950720F079F4A6F50C94E90E31
:101F60000EF4E0950B2EBA2FA02D0B01B9019001B4
:101F70000C01CA01A0011124FF27591B99F0593FF8
:101F800050F4503E68F11A16F040A22F232F342F40
:101F90004427585FF3CF469537952795A795F0408E
:101FA0005395C9F77EF41F16BA0B620B730B840BA3
:101FB000BAF09150A1F0FF0FBB1F661F771F881F5B
:101FC000C2F70EC0BA0F621F731F841F48F48795B3
:101FD00077956795B795F7959E3F08F0B0CF9395A5
:101FE000880F08F09927EE0F9795879508950E941E
:101FF000CF0E88F09F5798F0B92F9927B751B0F0BE
:10200000E1F0660F771F881F991F1AF0BA95C9F77C
:1020100014C0B13091F00E94E90EB1E008950C9423
:10202000E90E672F782F8827B85F39F0B93FCCF3D6
:10203000869577956795B395D9F73EF490958095F9
:10204000709561957F4F8F4F9F4F08950E940E0EA0
:1020500008F48FEF08950E940E0E880B990B0895D7
:1020600097FB072E16F4009407D077FD09D00E9445
:10207000441007FC05D03EF4909581959F4F08953C
:10208000709561957F4F0895AA1BBB1B51E107C056
:10209000AA1FBB1FA617B70710F0A61BB70B881FF8
:1020A000991F5A95A9F780959095BC01CD01089587
:1020B000EE0FFF1F0590F491E02D09940F931F93ED
:1020C000CF93DF938230910510F482E090E0E091AD
:1020D0008603F091870330E020E0B0E0A0E0309785
:1020E00099F42115310509F44AC0281B390B243015
:1020F0003105D8F58A819B816115710589F1FB0154
:1021000093838283FE0111C040815181028113813A
:1021100048175907E0F04817590799F4109761F0EC
:1021200012960C93129713961C933296CF01DF915F
:10213000CF911F910F910895009386031093870309
:10214000F4CF2115310551F04217530738F0A9019A
:10215000DB019A01BD01DF01F801C1CFEF01F9CF29
:102160009093870380938603CDCFFE01E20FF31F88
:10217000819391932250310939832883D7CF2091BD
:10218000840330918503232B41F420910601309183
:10219000070130938503209384032091040130913B
:1021A00005012115310541F42DB73EB740910801D5
:1021B00050910901241B350BE0918403F0918503B4
:1021C000E217F307A0F42E1B3F0B2817390778F00E
:1021D000AC014E5F5F4F2417350748F04E0F5F1F6D
:1021E0005093850340938403819391939FCFF0E0B4
:1021F000E0E09CCFCF93DF930097E9F0FC013297AA
:1022000013821282A0918603B0918703ED0130E022
:1022100020E01097A1F420813181820F931F20913B
:102220008403309185032817390709F061C0F093C2
:102230008503E0938403DF91CF910895EA01CE17DF
:10224000DF07E8F54A815B819E0141155105B1F731
:10225000E901FB83EA8349915991C40FD51FEC171B
:10226000FD0761F4808191810296840F951FE90139
:1022700099838883828193819B838A83F0E0E0E065
:1022800012968D919C9113970097B9F52D913C91E1
:102290001197CD010296820F931F209184033091F4
:1022A00085032817390739F6309751F510928703BF
:1022B00010928603B0938503A0938403BCCFD3838D
:1022C000C28340815181840F951FC817D90761F4DB
:1022D0004E5F5F4F88819981480F591F518340831A
:1022E0008A819B81938382832115310509F0B0CFC8
:1022F000F0938703E09386039ECFFD01DC01C0CFFE
:1023000013821282D7CFB0E0A0E0E9E8F1E10C94AB
:10231000240F8C01009751F4CB010E945E108C01B8
:10232000C801CDB7DEB7E0E10C94400FFC01E60F29
:10233000F71F9C0122503109E217F30708F49DC0F2
:10234000D901CD91DC911197C617D70798F0C53008
:10235000D10530F3CE0104978617970708F3C61B03
:10236000D70B2297C193D1936D937C93CF010E9499
:10237000FA10D6CF5B01AC1ABD0A4C018C0E9D1E23
:10238000A0918603B0918703512C412CF12CE12CB4
:10239000109731F5809184039091850388159905F4
:1023A00009F05CC04616570608F058C08091040139
:1023B00090910501009741F48DB79EB740910801B7
:1023C00050910901841B950BE817F90708F055C0D7
:1023D000F0938503E0938403F90171836083A0CFB8
:1023E0008D919C91119712966C90129713967C90F8
:1023F0001397A815B90559F56C0142E0C40ED11C1C
:10240000CA14DB0420F1AC014A195B09DA01129607
:10241000159780F06282738251834083D9016D9356
:102420007C93E114F10471F0D7011396FC93EE93C1
:10243000129776CF22968C0F9D1FF901918380838E
:10244000F301EFCFF0938703E093860369CF48163B
:10245000590608F42C017D01D3019ACFCB010E94CB
:102460005E107C01009749F0AE01B8010E94401255
:10247000C8010E94FA10870153CF10E000E050CF4E
:10248000FB01DC0102C001900D9241505040D8F791
:102490000895FB01DC0101900D920020E1F7089501
:0424A000F894FFCFDE
:1024A40001000000000088038000000040001400C8
:1024B400540000000000CDCCCC3D6ADE713E00002B
:1024C40080403333FF4100000500320063006400A4
:1024D40000000000CC012501590119028A0168019C
:1024E4007C0100000000F902CC021504A202C5021E
:1024F400B202A302000000007704250115043B0288
:102504003A00300048656C6C6F000D0A0054696D28
:10251400653A2020202000426174746572793A2063
:102524002020200025004C6170733A2020202020B8
:1025340020002F0056656C3A20202020006E616E2A
:1025440000696E66006F7666006D2F7300426573D6
:10255400744C61703A200043757272656E743A204F
:1025640000456E67696E653A202020202020206F88
:102574006E00456E67696E653A2020202020206F2A
:042584006666000087
:00000001FF
